:020000040800F2
:10000000B81000204901000881290008FB1B0008E6
:1000100011270008E5120008DB3D00080000000081
:10002000000000000000000000000000893100080E
:10003000D514000800000000F529000899350008D3
:100040006301000863010008630100086301000800
:1000500063010008630100086301000863010008F0
:1000600063010008630100086301000863010008E0
:1000700063010008630100086301000863010008D0
:1000800063010008630100086301000863010008C0
:1000900063010008630100086301000863010008B0
:1000A00063010008630100086301000863010008A0
:1000B00063010008FD3500086301000863010008C2
:1000C0006301000863010008630100086301000880
:1000D0006301000863010008A53A0008CD3B000851
:1000E0006301000863010008630100086301000860
:1000F0006301000863010008630100086301000850
:100100006301000863010008153700086301000857
:10011000630100086301000863010008630100082F
:10012000630100086301000863010008630100081F
:10013000DFF810D000F022FD00480047B15B000856
:10014000AFF30080B81000200648804706480047FB
:10015000FEE7FEE7FEE7FEE7FEE7FEE7FEE7FEE777
:10016000FEE7FEE79D35000831010008D2B201E04C
:1001700000F8012B491EFBD270470022F6E710B5AC
:1001800013460A4604461946FFF7F0FF204610BD05
:1001900030B505462A460B4612F8010B13F8014B01
:1001A00008B1A042F8D01CB1002802D06D1CF1E7C4
:1001B000284630BD10B5044604E00B7800F8013B3A
:1001C00003B1491C521EF8D2204610BD421C10F843
:1001D000011B0029FBD1801A704700000FB400B545
:1001E0008DB010A909900B9000914FF0FF300A904C
:1001F00000200C9005480690054807906A4609A81B
:100200000F9900F0F5FA0DB05DF814FB0D08000829
:100210002B0800082DE9FF5F1D464FF0FF3BD5E995
:10022000014691465F464FF00008A9697F1C01987E
:100230008847296A824688470028F6D1BAF1FF3FED
:100240000CD024F4C064002E19DD600614D5BAF178
:100250002B0F09D0BAF12D0F0ED103E0584604B090
:10026000BDE8F09F44F48064A9697F1C0198884729
:10027000761E8246002E02DDBAF1300F03D0B9F1AE
:10028000000F26D032E0A969761E44F400747F1C6A
:10029000019888478246002E05DDBAF1780F06D016
:1002A000BAF1580F03D0B9F1000F10D01EE0B9F128
:1002B000000F02D0B9F1100F18D1A969761E24F4ED
:1002C00000747F1C019888478246102002E00820B5
:1002D00000E00A20814609E008FB0908A969761EAA
:1002E00044F400747F1C019888478246002E05DD87
:1002F0004946504600F068FA0028EDDAE9690198AD
:100300008847A00502D46FF00100A8E7E00725D1D7
:10031000600613D5600502D5C8F1000000E0404634
:1003200029680A1D2A600968220501D5087015E0B0
:10033000220701D5088011E008600FE02868011D40
:1003400029600068210502D580F8008006E02107B9
:1003500002D5A0F8008001E0C0F8008038467EE7B2
:10036000F0B480EA0102D40F4200B2EB410F02D296
:100370000246084611464A0042D0C30DDDB2C1F321
:10038000C752AD1A202D35DAC1F3160141F400022F
:1003900004B15242C5F1200602FA06F12A41104486
:1003A000B3EBD05F23D0C4B1012DA0EBC35009DC67
:1003B000F0BC4FF0004202EAC352DBB200F500008D
:1003C00000F04DBA400000F1807000EBC350A0F186
:1003D000807040EAD170490009E0490841EAC071E3
:1003E000A0EBC35000F50000400800EBC350F0BC88
:1003F00000F02CBA6142012202EB4101001BF6E73A
:10040000F0BC704781F00041AAE780F00040A7E708
:1004100080EA010210B502F00043400022D04A00F9
:100420001FD0010E01EB1261C0F35600C2F3560259
:1004300040F4000042F40002A0FB022000047F39D7
:10044000140400D0401C50EA124001D44000491E60
:10045000C2B20C0604EBD010401C4008802A02D027
:1004600003E0002010BD20F00100002900DA002088
:10047000184310BD30B480EA010202F0004530F0AC
:10048000004221F0004013D090B1C30DD40DC2F34F
:100490001601C0F31600E41A41F4000140F4000212
:1004A0007D34914201D3641C00E04900002C02DA43
:1004B00030BC002070474FF400000023914201D36C
:1004C000891A034340084FEA4101F7D151B19142E3
:1004D00002D14FF0004105E002D24FF0010101E0EE
:1004E0006FF0010103EBC450284430BC00F0AEB9FA
:1004F0002DE9FE4F81EA030404F0004421F000419D
:1005000000944FF0000B23F0004350EA01045ED04A
:1005100052EA03045BD0C3F30A54C1F30A552C44D6
:10052000A4F2F3340194A0FB0254C1F3130141F48B
:100530008011C3F3130343F4801301FB024400FB57
:10054000034E840A970A44EA815447EA8357A4FB7E
:10055000076802958D0A05FB07854FEA932C04FB7B
:100560000C542705029D4FEA065847EA1637B5EBAB
:1005700008056EEB070C870E920E47EA811742EAD8
:100580008312A7FB0201B6EB0B0164EB00042B0DF9
:1005900043EA0C335E1844EB1C50DA465146E7FB45
:1005A0000201C5F313044FEA0B3343EA14534FEA35
:1005B0000432019C43EA0603A4F10C040294009C5B
:1005C000CDE900B400F088F903B0BDE8F08F002059
:1005D0000146F9E72DE9F04D81EA030404F0004BF0
:1005E00021F0004514464FF0000A23F0004150EA84
:1005F000050220D054EA01021DD0C5F30A57024675
:10060000C5F31303C1F31300C1F30A5640F4801578
:1006100043F48013A7EB0608101BD64608F2FD38FA
:1006200073EB050002D308F1010801E092185B4169
:10063000B8F1000F03DA00200146BDE8F08D00207C
:100640004FF48011064684460EE0171B73EB050736
:1006500005D3121B63EB050306434CEA010C490862
:100660004FEA300092185B4150EA0107EDD152EA9F
:10067000030012D082EA040083EA0501084305D092
:10068000101BAB4106D20122002306E000224FF0EE
:10069000004302E06FF0010253101AEB06004CEB2E
:1006A000085110EB0A0041EB0B01BDE8F04D00F0E2
:1006B00004B996230022114600F0D1B8C1F30A52C2
:1006C00010B5C1F3130140F2FF3341F480119A4297
:1006D00001DA002010BD40F233439A42A2F23342C5
:1006E00003DC524200F060F810BD904010BD00F0F5
:1006F000004230F000400AD0C10D01F56071C0F336
:10070000160042EA0151C208400711437047002019
:100710000146704730B5041E71F1000404DB4FF050
:100720000044404264EB0101141E73F1000405DB38
:100730001C464FF00043524263EB0403994208BF4A
:10074000904230BD01F0004330B421F0004150EA46
:10075000010206D00A0DA2F56072C1F31301002A4E
:1007600002DC30BC00207047440F44EAC104C100E1
:10077000E01830BC00EBC25000F068B830B50B4652
:10078000014600202022012409E021FA02F59D42C1
:1007900005D303FA02F5491B04FA02F52844151E95
:1007A000A2F10102F1DC30BD202A04DB203A21FA5B
:1007B00002F00021704721FA02F3D040C2F120027A
:1007C00091400843194670473A2800D2303820F04B
:1007D0002002412A01D3A2F13700884201D34FF011
:1007E000FF30704702681144137801601846704763
:1007F000D16004495161044911620021116111461F
:1008000000F0F4B9E5070008E30B0008426842B1C4
:10081000016811F8013B23B1521EC0E900121846CD
:1008200070470121C160881E704742685AB1C36891
:10083000016843B983688B4205D0491E521CC0E948
:100840000012002070474FF0FF3070470029A8BF0A
:100850007047401C490008BF20F00100704710B4E9
:10086000B0FA80FC00FA0CF050EA010404BF10BC9E
:10087000704749B1CCF1200421FA04F411FA0CF1CB
:1008800018BF012121430843A3EB0C01CB1D4FEA04
:1008900000614FEA102042BF002010BC704700EBFF
:1008A000C35010440029A4BF10BC7047401C49002D
:1008B00008BF20F0010010BC704710B5141E73F182
:1008C000000408DA401C41F1000192185B411A4310
:1008D00001D120F0010010BD2DE9F04D92469B465C
:1008E00011B1B1FA81F202E0B0FA80F22032904602
:1008F00000F056F904460F4640EA0A0041EA0B01AF
:1009000053465A46084313D0114653EA010019D002
:10091000C8F140025046FFF747FF05460E465046D5
:100920005946424600F03CF9084305D0012004E056
:1009300020463946BDE8F08D0020054346EAE076C2
:100940002C4337430A986305E40AA0EB0800002211
:10095000FD0A44EA47540A3002D500200146E9E77F
:10096000010510196941DDE9084500196941BDE833
:10097000F04DA2E72DE9FE4F804681EA0300C00F4B
:100980000C46009021F0004123F00045B8EB020036
:10099000A94105D24046214690461C460B460246D8
:1009A00023F00040104347D0270DC7F30A00C3F3DC
:1009B0000A510290401A019040286BDAC3F31300E9
:1009C00040F4801B0098924620B10023D2EB030A2A
:1009D00063EB0B0B01985946C0F14002504600F002
:1009E000DFF806460D4650465946019A00F0E7F8F2
:1009F00010EB08006141002487EA115284EAE77392
:100A00001A4340D0009A62B3019A012A4FEA075272
:100A100015DC001B61EB02014FF0004202EA0752B5
:100A2000CDE90042001C41F5801132462B46FFF70C
:100A300053FF03B0BDE8F08F40462146F9E7001BA5
:100A400061EB0201001C41F5801300185B41201886
:100A5000A2F5001747EB030140EAD570B6196D41C6
:100A600011E06D084FEA360645EAC0754FEA0752B5
:100A7000001B61EB0201001C41F5801149084FEA9F
:100A800030000019514132462B4603B0BDE8F04F0B
:100A9000FFF713BF0098012240000023D0EB0202B1
:100AA00063EBE073009821464FEAE074B8EB000076
:100AB00061EB0401E9E783F000435BE781F000416B
:100AC00058E700002DE9F041054621F000400C46B2
:100AD000284309D0C4F30A5040F23341884205DD6F
:100AE00028462146BDE8F0812846FBE740F2FE316A
:100AF000884210DC0CDB4FEA043040EA155050EA23
:100B0000053105D0104804F0004101430020E9E719
:100B100000200146E6E7A0F233404642C6F140021B
:100B20002846214600F03CF80746884628462146DC
:100B30003246FFF739FE43463A46FFF7BEFE3246DD
:100B4000BDE8F04100F02CB80000F03F30B5041EC5
:100B500071F1000404DB4FF00044404264EB0101FA
:100B6000141E73F1000405DB1C464FF00043524293
:100B700063EB04038B4208BF824230BD064C074D35
:100B800006E0E06840F0010394E80700984710345D
:100B9000AC42F6D3FFF7D0FA1C6200083C620008B2
:100BA000202A04DB203A00FA02F10020704791402D
:100BB000C2F1200320FA03F3194390407047202A22
:100BC00006DBCB17203A41FA02F043EAE07306E075
:100BD00041FA02F3D040C2F1200291400843194685
:100BE0007047C0B24FF4F05100F098B92DE9F34FBF
:100BF0008BB04FF0000801F10C000C464FF0010BD8
:100C000046460DF1080A019062690121019890475A
:100C1000051E2DD0252D2CD0216A8847C0B16269D0
:100C2000012101989047216A88470028F7D1411E89
:100C300062690198904700E0761CA1690B9888478B
:100C4000216A88470028F7D1E1690B988847DBE7DC
:100C5000A1690B9888470746A84201D1761CD3E7C3
:100C6000E1690B9888477F1C02D1B8F1000F6FD063
:100C700047E1002762693D463946019890472A2896
:100C800004D162690121019890470125DFF888921B
:100C90006269012101989047A0F130010A290AD226
:100CA0004F45E5DC07EB870100EB4107303FDFD420
:100CB00045F01005ECE7E90601D46FF000476C2819
:100CC0000AD04C2814D0682815D06A280DD0742872
:100CD0001CD07A281AD01DE0626901210198904742
:100CE0006C2802D045F0040514E045F002050DE043
:100CF00045F020050AE062690121019890476828C3
:100D000002D045F0080505E045F40065626901215F
:100D100001989047C4E9015765283DD019DC58284F
:100D20007AD00CDC452837D004DC252826D0412891
:100D300031D131E046282FD047282CD12CE05B2838
:100D400077D0612828D063287CD0642823D15AE04A
:100D5000D1E06F2848D008DC66281DD067281BD05A
:100D6000692821D06E2816D127E0702845D0732835
:100D700068D0752847D078280DD14DE0A1690B982F
:100D80008847054625283FF469AFE1690B988847F5
:100D90006D1C3FF46AAFB4E023466A466FF0010071
:100DA0000B99AFF300809FE045F040006060A8071A
:100DB00023464FF0000236D43EE0E8077FF447AF09
:100DC0002068011D21600068290501D506701BE718
:100DD000290701D5068017E7A90703D5F117C0E950
:100DE000006111E706600FE745F040006060A8076A
:100DF00023464FF0080216D41EE040F60E0125EA05
:100E00000100606016E045F040006060A8072346DE
:100E10004FF00A0207D40FE045F040006060A807D9
:100E200008D5234610226FF001000B99AFF3008024
:100E30005AE007E0234610226FF001000B99FFF7FC
:100E4000E9F951E04FF000094F464B46632802D0C4
:100E50005B2807D041E02079C00601D40120A060C2
:100E600001273AE062690121019890475E2805D187
:100E70004FF001096269494601989047216939B9E3
:100E800000210A46534643F82120491C0829FADB71
:100E9000B0B3216969B9C11700EBD16253110AEBF4
:100EA000830122F01F02821A01200B689040034345
:100EB0000B6062690121019890475D28E8D1B9F182
:100EC000000F09D00020514651F82020D24341F8AC
:100ED0002020401C0828F7DB02AB224600976FF069
:100EE00001000B99AFF3008000280CDA401C08D1F8
:100EF000BBF1000F05D04FF0FF300DB0BDE8F08F13
:100F0000FFE74046F9E7E90701D108F10108064487
:100F10004FF0000B78E60000CCCCCC0C7F2801D938
:100F2000002208E0064A02EB5002C007127800D106
:100F3000120902F00F0201209040084070470000A3
:100F4000DA610008CA430260704721B1826842F04A
:100F50000102826003E0826822F001028260704731
:100F600000B587B0142102A8FFF707F9002001900F
:100F700000900121480201F05FFD0121102001F0E5
:100F80005BFD0121042001F057FD0F20ADF80400A6
:100F900000208DF8070001A91B4800F0D9FC0220B1
:100FA000ADF8000000208DF803006946174800F0F6
:100FB000CFFC002002908DF80C008DF80D004FF44E
:100FC000602004900020059001208DF8180002A9EF
:100FD0000F4800F061F801210D48FFF7B6FF0C48FB
:100FE00000F0DEF800BF0A4800F02BF80028FAD124
:100FF000074800F0E5F800BF054800F00BF80028AE
:10100000FAD107B000BD0000001001400008014007
:1010100000240140014600208A6802F004020AB15F
:10102000012000E0002070470146C86C80B2704784
:101030000246002013680B400BB1012000E00020A5
:101040007047014600208A6802F008020AB10120B8
:1010500000E000207047000070B50446052301221F
:1010600021460C4800F040F801210A4800F09DF8A4
:1010700000BF02210748FFF7DBFF0028F9D0054831
:10108000FFF7D2FF054602210248FFF75BFF284623
:1010900070BD00000024014030B50246002000234E
:1010A00050680F4C20400D790C6844EA0524204319
:1010B000506090680B4C2040D1E902542C434D798C
:1010C00044EA450420439060D06A20F470000C7C10
:1010D000641EE4B2234340EA0350D06230BD0000F6
:1010E000FFFEF0FFFDF7F1FFF0B504460D460020CE
:1010F0000021092D11DDE068A5F10A0606EB46077F
:10110000072606FA07F18843A5F10A0606EB46060C
:1011100003FA06F10843E0600CE0206905EB45079F
:10112000072606FA07F1884305EB450603FA06F1A0
:1011300008432061072A0FDA606B561E06EB86070C
:101140001F2606FA07F18843561E06EB860605FAA7
:1011500006F10843606322E00D2A0FDA206BD61FE8
:1011600006EB86071F2606FA07F18843D61F06EB13
:10117000860605FA06F10843206310E0E06AA2F152
:101180000D0606EB86071F2606FA07F18843A2F133
:101190000D0606EB860605FA06F10843E062F0BD8F
:1011A000816841F008018160704721B1826842F492
:1011B000A002826003E0826822F4A002826070478D
:1011C000816841F004018160704700002DE9F0471B
:1011D0008AB001212D4802F05AFB012853D12C4836
:1011E000007801284BD000F0B9FC82465046FFF74A
:1011F0007EFA04460022274BFFF78CFA08D826A077
:1012000000F002FFFF221146104600F011FF35E00A
:1012100028484FF07E53284A28490090504600F055
:1012200078FC8146FFF763FA074604F07BFE05462B
:10123000FFF744FAC4B22248007848B1601C204944
:101240000978884204DB1E480078401CA04214DA6A
:1012500022461CA108A802F0FBFE08AA1AA16846B3
:1012600002F0F6FE684600F0CFFEFF22114610465F
:1012700000F0DEFE1248047000BF00BF00BF012175
:10128000024802F0E9FA0AB0BDE8F0870008004021
:101290001E000020000028407478745F656C655F54
:1012A0006C6576656C2E7478743D22313030252261
:1012B000000000000000C842000040410000104152
:1012C0002E000020256400007478745F656C655FF3
:1012D0006C6576656C2E7478743D22257325252205
:1012E0000000000000BFFEE700F0805111B103498B
:1012F000086001E0024948607047000004040240B1
:101300000000024021B1026842F00102026004E0E4
:1013100002684FF6FE731A400260704701684FF68C
:10132000FE72114001600021016041608160C16076
:101330004B49884208D14A490839496841F00F01B0
:10134000474A083A51608AE045491431884208D139
:1013500043490839496841F0F001414A083A51606F
:101360007DE03F492831884208D13D490839496824
:1013700041F470613A4A083A516070E038493C31B2
:10138000884208D136490839496841F47041344AE5
:10139000083A516063E032495031884208D13049FF
:1013A0000839496841F470212D4A083A516056E0E5
:1013B0002B496431884208D129490839496841F4E8
:1013C0007001274A083A516049E02549783188423E
:1013D00008D123490839496841F07061204A083A28
:1013E00051603CE01F49884206D1011F096841F065
:1013F0000F01021F116032E01A491431884208D1EE
:101400001849091F096841F0F001164A121F1160BE
:1014100025E014492831884208D11249091F09687A
:1014200041F470610F4A121F116018E00D493C3100
:10143000884208D10B49091F096841F47041094AE3
:10144000121F11600BE007495031884207D105494E
:10145000091F096841F47021024A121F1160704788
:10146000080002400804024001460020002201F06A
:10147000805313B1054B1A6801E0054B1A6802EA64
:1014800001030BB1012000E000207047000402407E
:101490000000024010B50022026847F6F0739A433C
:1014A0000C6A8B6823430C6923434C6923438C6982
:1014B0002343CC6923434C6A23438C6A23431A4356
:1014C0000260CB6843600B6883604B68C36010BDEB
:1014D000416070477047000010B56FF0040002F0E3
:1014E00047F80A4800680A49B0FBF1F0094908705A
:1014F0000846007800EB4001C1EBC0104FF6FF71C9
:1015000001EAC0000449088010BD0000640000200A
:1015100000127A000600002008000020014600208A
:10152000114A12884A434FF0E0235A6100229A611F
:101530001A46126942F001021A6100BF4FF0E02220
:10154000106900F001021AB100F48032002AF5D0CF
:101550004FF0E022126922F001024FF0E0231A61FD
:1015600000229A6170470000080000200146002018
:10157000114A12784A434FF0E0235A6100229A61DF
:101580001A46126942F001021A6100BF4FF0E022D0
:10159000106900F001021AB100F48032002AF5D07F
:1015A0004FF0E022126922F001024FF0E0231A61AD
:1015B00000229A61704700000600002010B58EB02E
:1015C000BC48007808B90EB010BDBB48007814289C
:1015D0007ED2DFE800F00A0E7D7D7D7D7D5455567C
:1015E0005758595A5B5C5D5E5FEB0120B249087049
:1015F0005DE1B2484078022806D18103B04800F08E
:1016000086FA0320AD494870AC488078022806D19C
:101610008102AC4800F07BFA0320A8498870A748F3
:10162000C078022806D10421A74800F070FA0320F0
:10163000A249C870A1480079022806D11021A34808
:1016400000F065FA03209D4908719C484079022802
:1016500006D140219D4800F05AFA0320974948716D
:1016600096488079022806D1C101984800F04FFAC7
:1016700003209249887107208F49087017E100BF45
:1016800000BF00BF00BF00BF00BF00BF00BF00BF62
:1016900000BF00BF894888490978405C02287CD196
:1016A0008B48007888BB03208A49834A1278885483
:1016B00089480088894908800120854908707E484A
:1016C0000078C01F00EB4000854B03EB400200E0B8
:1016D000ECE079480078801FC1B2022000F044FBA2
:1016E000002862D1C820FFF719FF73480078C01F97
:1016F00000EB40007A4B03EB40026F480078801FFC
:10170000C1B2022000F030FB4FE0FFE772480088D2
:1017100072490988401A322827DD7248007820BBB8
:1017200065480078C01F00EB40006D4B03EB4002A2
:1017300061480078801FC1B2022000F015FB88B913
:10174000C820FFF7EBFE5C480078C01F00EB4000AC
:10175000634B03EB400258480078801FC1B202205F
:1017600000F002FB01205F4908705B4800885B497C
:101770000988401A642818DD5A480078012814D1D5
:101780000020534908704C480078401C4A490870B2
:1017900000205449087008E0FFE747480078401CE3
:1017A0004549087000204A49087080E000204149FE
:1017B0000870012040490870002045490870012048
:1017C00049490870C1033E4800F09FF94FF4006199
:1017D0003C4800F09AF904213B4800F096F91021AA
:1017E0003A4800F092F94021384800F08EF94FF461
:1017F0008071364800F089F9072008E03549095C16
:10180000032902D100212D4A1154411CC8B21328CA
:10181000F4DB1D212F48FEF7B0FC00203249087090
:1018200000F076FB31A000F0EFFBFF2211461046DE
:1018300000F0FEFB002404E03220FFF76FFE601C86
:10184000C4B22FA12F48FEF7A3FC08B9192CF3DB73
:101850002BA12C48FEF79CFC98B12BA12948FEF740
:1018600097FC70B100F0AAFF264A28A101A802F057
:10187000EFFB00F04DFB01A801F044F800F048FB3D
:1018800000BF28A000F0C0FBFF221146104600F068
:10189000CFFB2AA000F0B8FBFF221146104600F053
:1018A000C7FB00F08BFF00F0E5FF00E000BF00BFCA
:1018B00000BF88E603000020C0000020200C0020AC
:1018C000000801400010014000140140000C0140DC
:1018D000C4000020980C002000000020C20000205E
:1018E0003D0C0020C500002015000020636C6963DA
:1018F0006B206765745F74696D652C3100000000B2
:10190000C4EA0000C8000020D4C200002573D6B489
:10191000D0D0B5E3BBF0C3FCC1EECDEAB1CF0D0A28
:1019200000000000736C745F73686F775F636F6EA5
:10193000742E7478743D222200000000636C696389
:101940006B2073686F775F6C6F672C31000000004D
:101950002DE9F04102460025002600200023002446
:10196000002791F803C00CF00F0591F803C00CF0AC
:10197000100CBCF1000F03D091F802C04CEA050531
:1019800091F800C0BCF1000F31D0146800202BE0AA
:101990004FF0010C0CFA00F3B1F800C00CEA03069A
:1019A0009E4220D183004FF00F0C0CFA03F7BC438A
:1019B00005FA03FC4CEA040491F803C0BCF1280FBB
:1019C00006D14FF0010C0CFA00FCC2F814C00AE07A
:1019D00091F803C0BCF1480F05D14FF0010C0CFA8F
:1019E00000FCC2F810C0401C0828D1D31460B1F824
:1019F00000C0BCF1FF0F34DD546800202EE000F180
:101A0000080C4FF0010808FA0CF3B1F800C00CEA1A
:101A100003069E4221D183004FF00F0C0CFA03F70E
:101A2000BC4305FA03FC4CEA040491F803C0BCF182
:101A3000280F05D100F1080C08FA0CF8C2F8148040
:101A400091F803C0BCF1480F07D100F1080C4FF02A
:101A5000010808FA0CF8C2F81080401C0828CED300
:101A60005460BDE8F0810000F0B50A460023002470
:101A70000021002500F00046B6F1004F02D11D4EB6
:101A8000F16901E01B4E7168C0F3034583B200F4B5
:101A90004016B6F5401F08D121F07061154E7668EA
:101AA00026F07066134F7E6012E000F48016B6F5E3
:101AB000801F06D1032606FA05F4A14341F07061A8
:101AC00006E0460D360103FA06F6B14341F07061B7
:101AD00022B1460D360103FA06F6314300F0004606
:101AE000B6F1004F02D1034EF16101E0014E716089
:101AF000F0BD00000000014002460020D3680B400A
:101B00000BB1012000E00020704741617047016186
:101B100070472DE9FC5F06460F4614461D46DDF86A
:101B2000308039462046FEF76DFC2946019040463C
:101B3000FEF768FC834639463046FEF763FC59469B
:101B40000090FEF765FC82460199FEF793FC814602
:101B50002946FEF705FCBDE8FC9F00002DE9FC5F6F
:101B60004FF0000BDA46002408E00120FFF774FA7A
:101B700082440320FFF7D2FC601CC4B2052CF4DBC6
:101B80000520BAFBF0FA5046FEF793FD0090FEF7F1
:101B9000AEFD06464FF066320D4BFEF7A9FC04463B
:101BA00000220C4BFEF716FD8046FEF7CBFD834668
:101BB00009495846FEF75EFC019008490198FEF776
:101BC00027FC04465946FEF7CBFBBDE8FC9F00000E
:101BD00066660A400000B04000401C460098374747
:101BE00030B502460020002304E012F8014B6040AB
:101BF0005C1CA3B28B42F8DB30BD00BFFEE70000E7
:101C00002DE9F84F0646894600270025A846AB4631
:101C1000002000900024824600BF05E0705DFE2891
:101C200000D103E0681CC5B24D45F7DB00BFA9EB4E
:101C30000500042801DABDE8F88F7719797838466D
:101C4000FFF7CEFF7978795C884200D0F3E7F0782F
:101C5000000900900098032800D0ECE7F07800F02D
:101C60000F0496F804A0B078012806D0022805D009
:101C7000F12804D0F2286AD12BE069E068E0022163
:101C8000A01D354A11540121344A11544FF0000867
:101C90001BE00AF0010048B10121601E00EB40008A
:101CA0002F4A02EB400000F8081008E00021601EF7
:101CB00000EB40002A4A02EB400000F808104FEA0F
:101CC0006A0A08F1010000F0FF08B8F1060FE0DB36
:101CD0003EE00421A01D204A115400251CE0601E96
:101CE00000EB40001E4901EB4000405D022807D197
:101CF0000321601E00EB4000194A02EB40004155F1
:101D0000601E00EB4000164901EB4000405D0128D9
:101D100000D18346681CC5B2062DE0DBBBF1000F85
:101D200003D10321A01D0D4A1154A01D0D490978AE
:101D300088420BD1601E00EB4000094901EB4000D6
:101D40000649133102680A608088888000E000BF7D
:101D500000BF00BF6FE70000980C0020200C00209F
:101D60003D0C0020B40000202DE9FE4305460E4640
:101D7000174600200090019002900024804600BF8A
:101D80000AE0385D022805D10120A04040EA0800A1
:101D900000F0FF08601CC4B2062CF2DBFE208DF8B8
:101DA0000000012D03D104208DF8010006E005207C
:101DB0008DF8010008F03F008DF804008DF8025006
:101DC00006F00F0040F030008DF803009DF8011080
:101DD0006846FFF705FF9DF801100DF801009DF81A
:101DE0000100401CC1B2684604F07CF9BDE8FE83E6
:101DF00010B50A210348FEF7C0F900200149C87256
:101E0000887210BD140C002010B532211E48FEF758
:101E1000B4F900F07DF81DA000F0F6F8FF2211469D
:101E2000104600F005F900240FE01DA11D48FEF743
:101E3000AFF928B11CA11B48FEF7AAF900B106E0D2
:101E40003220FFF76BFB601CC4B21E2CEDDB00BF21
:101E50001E2C0DDA312213490B48FEF7ABF9002096
:101E6000094981F831000F4910A002F0C7F807E0D6
:101E700012A23221044802F0D1F817A002F0BEF8F5
:101E800000F046F8004810BD2E010020636C696325
:101E90006B206765745F74696D652C31000000000C
:101EA000C4EA0000C8000020D4C2000052544320FD
:101EB00054696D653A25730D0A00000031393730D9
:101EC000C4EA3031D4C23031C8D53030CAB1303034
:101ED000B7D63030C3EB00005254432054696D65CF
:101EE0003A204572726F723A2054696D656F75744D
:101EF0000D0A000010B504A000F086F8FF2211467C
:101F0000104600F095F810BD726573740000000073
:101F100010B50020044981F8640081F8650066214D
:101F20000148FEF72AF910BDC800002010B586B0A0
:101F300004460020059001900290039004900090C8
:101F40000121880400F068FD0121082000F074FDE3
:101F50004FF48060ADF8140003208DF816001820AF
:101F60008DF8170005A91F48FFF7F2FC4FF4006039
:101F7000ADF8140004208DF8170005A91948FFF7E3
:101F8000E7FC01940020ADF80800ADF80A00ADF8B8
:101F90000C00ADF810000C20ADF80E0001A912489D
:101FA00001F0AAFE012240F225510F4801F07EFE09
:101FB000012240F224410C4801F078FE27208DF8E0
:101FC000000000208DF801008DF8020001208DF83E
:101FD0000300684600F0D6FC0121034801F030FE02
:101FE00006B010BD000C01400048004000BF05498C
:101FF000098801F080010029F9D00249091D0880F3
:1020000070470000004800400BE000BF0749098806
:1020100001F080010029F9D010F8011B034A121DBC
:10202000118001780029F0D170470000004800407D
:1020300010B504460B462046FFF7D8FF1846FFF7B9
:10204000D5FF1046FFF7D2FF10BD00001CB5814838
:1020500090F86500012800D01CBD01F04FFB7D48C1
:10206000007886280BD17B484078FF2807D1794833
:102070008078FF2803D1012077490870E4E0764892
:10208000007801280DD1734890F86500012808D127
:10209000704890F86400002803DD00206E49087045
:1020A000D2E06B4601AA6DA16A48FEF797F89DF849
:1020B00004000A2877D2DFE800F0C5050C1118C526
:1020C0001F2369C19DF800101831C8B202F0A2F9AF
:1020D000B9E09DF8000002F09DF9B4E09DF8001011
:1020E000891DC8B202F096F9ADE09DF800101231DA
:1020F000C8B202F08FF9A6E001205A490870A2E0A8
:10210000002059490877C876584908600021584886
:1021100001F0A8FB9DF8000001281AD1554908706C
:1021200055A0FFF771FFFF2211461046FFF780FF11
:1021300056A0FFF769FFFF2211461046FFF778FF10
:1021400057A0FFF761FFFF2211461046FFF770FF0F
:102150001BE09DF80000022817D147A0FFF754FFAD
:10216000FF2211461046FFF763FF48A0FFF74CFF20
:10217000FF2211461046FFF75BFF49A0FFF744FF1F
:10218000FF2211461046FFF753FF5CE09DF8000068
:10219000012816D146A0FFF737FFFF22114610464F
:1021A000FFF746FF00E04DE047A0FFF72DFFFF22BD
:1021B00011461046FFF73CFF00F000FB00F05AFB11
:1021C0003BE09DF80000022837D144A0FFF71CFF38
:1021D000FF2211461046FFF72BFF48A0FFF714FF20
:1021E000FF2211461046FFF723FF4CA0FFF70CFF1C
:1021F000FF2211461046FFF71BFF50A0FFF704FF18
:10220000FF2211461046FFF713FF54A0FFF7FCFE14
:10221000FF2211461046FFF70BFF58A0FFF7F4FE10
:10222000FF2211461046FFF703FF5CA0FFF7ECFE0C
:10223000FF2211461046FFF7FBFE04E0002009498B
:10224000087000E000BF00BFFFF762FE01F04AFA2D
:1022500000BF01E7C80000201E00002023256423E2
:10226000256423001C000020200C0020100000200A
:10227000000C0040030000207669732062746E5FDA
:10228000636F6E6669726D2C300000007669732092
:1022900062746E5F63616E63656C2C3000000000D9
:1022A0007478745F73746172742E7069633D350065
:1022B000736C745F73686F775F636F6E742E74787E
:1022C000743D222200000000636C69636B20736818
:1022D0006F775F6C6F672C31000000007365745F6F
:1022E00074696D655F706167652E7365745F6E6993
:1022F000616E2E76616C3D72746330007365745F3D
:1023000074696D655F706167652E7365745F79755B
:10231000652E76616C3D7274633100007365745F85
:1023200074696D655F706167652E7365745F72694E
:102330002E76616C3D727463320000007365745FC9
:1023400074696D655F706167652E7365745F72692E
:102350002E76616C3D727463330000007365745FA8
:1023600074696D655F706167652E7365745F72690E
:102370002E76616C3D727463340000007365745F87
:1023800074696D655F706167652E7365745F7269EE
:102390002E76616C3D727463350000007061676574
:1023A000207365745F74696D655F706167650000B7
:1023B00010B588B020216846FDF7DFFE0024012417
:1023C000CCE06948005D6949095D884216D06648DD
:1023D000005D66490855062C11DC6348005D6449C0
:1023E0000B5C224663A1684601F032FE6846FFF7A7
:1023F0000BFEFF2211461046FFF71AFEACE0122C2E
:1024000011DC5948005D5A490B5CA21F5EA1684669
:1024100001F01EFE6846FFF7F7FDFF221146104649
:10242000FFF706FE98E0182C12DC4F48005D50497B
:102430000B5CA4F112025AA1684601F009FE68463D
:10244000FFF7E2FDFF2211461046FFF7F1FD83E0A2
:10245000192C14D14448407E022804D155A1684665
:1024600001F0F6FD03E057A1684601F0F1FD684672
:10247000FFF7CAFDFF2211461046FFF7D9FD1A2CBF
:1024800014D13948807E022804D152A1684601F057
:10249000DFFD03E055A1684601F0DAFD6846FFF76D
:1024A000B3FDFF2211461046FFF7C2FD1B2C14D1CD
:1024B0002D48C07E022804D152A1684601F0C8FD13
:1024C00003E054A1684601F0C3FD6846FFF79CFD98
:1024D000FF2211461046FFF7ABFD1C2C3CD12248D1
:1024E000007F022820D14FA0FFF78EFDFF2211466A
:1024F0001046FFF79DFD50A0FFF786FDFF22114615
:102500001046FFF795FD51A0FFF77EFDFF22114613
:102510001046FFF78DFD52A0FFF776FDFF22114612
:102520001046FFF785FD17E052A0FFF76DFDFF2273
:1025300011461046FFF77CFD53A0FFF765FDFF2213
:1025400011461046FFF774FD32A0FFF75DFDFF2234
:1025500011461046FFF76CFD601CC4B21D2CFFF63F
:1025600030AF08B010BD0000200C0020600100203A
:1025700029000020696D675F77697265645F256473
:102580002E7069633D256400696D675F6E6F7769C2
:1025900072655F25642E7069633D2564000000004C
:1025A000696D675F626C6173745F25642E70696327
:1025B0003D2564007478745F636865636B2E706991
:1025C000633D36007478745F636865636B2E706971
:1025D000633D35007478745F73656C6563745F6127
:1025E0006C6C2E7069633D36000000007478745F77
:1025F00073656C6563745F616C6C2E7069633D35E7
:10260000000000007478745F73746172742E7069D6
:10261000633D36007478745F73746172742E7069F0
:10262000633D35007478745F69676E6974696F6EB5
:102630002E7069633D3600007669732062746E5FA8
:10264000636F6E6669726D2C3100000076697320CD
:1026500062746E5F63616E63656C2C310000000014
:102660007478745F69676E6974696F6E2E706963E0
:102670003D3500007669732062746E5F636F6E662D
:1026800069726D2C300000007669732062746E5F91
:1026900063616E63656C2C300000000010B501F0C2
:1026A00015FC012025E01649095C164A52F8211054
:1026B000C1F30741144A125C02EB4202134B9954D6
:1026C0000F49095C0F4A32F82110090A0E4A125CC0
:1026D00002EB42021A4451700949095C094A12F896
:1026E0002110094A125C02EB42021A449170411C0B
:1026F000C8B21D28D7DB1C21044801F0F3FB10BD34
:10270000200C002050000020300000204507002051
:1027100000BFFEE770B5002505E04FF4FA70FEF744
:10272000FDFE681CC5B200F077FA08B1052DF4DB98
:102730000CA001F063FC00F02CFA064631460EA016
:1027400001F05CFC012211A1114802F05FFA04467D
:102750001CB910A001F052FC02E013A001F04EFCE5
:1027600070BD00005344BFA8B3F5CABCBBAFB3C92A
:10277000B9A60D0A000000005344BFA8C8DDC1BFC0
:10278000B4F3D0A13A25750D0A0000003000000016
:10279000C0070020D7A2B2E1B9A4D7F7C7F8B3C9E0
:1027A000B9A60D0A00000000D7A2B2E1B9A4D7F77C
:1027B000C7F8CAA7B0DC0D0A0000000010B503225C
:1027C00011A1144802F050FA04461CB912A001F0FD
:1027D00015FC18E0042C12D107220BA10D4802F0C1
:1027E00043FA04461CB911A001F008FC0BE015A047
:1027F00001F004FC074802F03AF9044603E02146E0
:1028000016A001F0FBFB10BD303A2F6C6F672E74E1
:1028100078740000F0090020C8D5D6BECEC4BCFE36
:10282000B4F2BFAAB3C9B9A60D0A0000B4B4BDA8DA
:10283000B4F2BFAAC8D5D6BECEC4BCFEB3C9B9A631
:102840000D0A0000B4B4BDA8CFB5CDB3C8D5D6BE6F
:10285000CEC4BCFECAA7B0DC0D0A0000C8D5D6BEE7
:10286000CEC4BCFEB4F2BFAAB3F6B4ED3A25640DF3
:102870000A00000010B5A2B00021184802F007F9C4
:102880000020149000BF14AB322215A9134802F0A7
:10289000A7FA0446ACB9002015A9149A885415AAC1
:1028A0000FA1684601F0D4FB694613A001F0A6FB16
:1028B0006846FFF7A9FBFF2211461046FFF7B8FB59
:1028C00001E004B102E014983228DCD000BF0348D4
:1028D00002F0CDF8044622B010BD0000F00900203F
:1028E000736C745F73686F775F636F6E742E747848
:1028F000742B3D22257322006C6F673A25730D0AF5
:1029000000000000F8B50446002000901048C1689F
:1029100002F0BDF82046FDF759FC06466B463246EC
:1029200021460B4802F084FB054645B909A00099F1
:1029300001F064FB064802F09AF8054606E00AA09A
:1029400001F05CFB024802F092F80546F8BD000079
:10295000F0090020B3C9B9A6D0B4C8EBCAFDBEDDEA
:102960003A25640D0A000000C8D5D6BECAFDBEDDFA
:10297000D0B4C8EBCAA7B0DCA3A1A3A10D0A000084
:102980007047000070B5002100230F22C47804B303
:10299000154C246804F4E064C4F5E064210AC1F134
:1029A0000403CA40447804FA03F1847814402143B4
:1029B00009010E4C0678A155047804F01F05012486
:1029C000AC4005786D11AD0005F1E025C5F800417A
:1029D00009E0047804F01F050124AC40044D06789A
:1029E000761145F8264070BD0CED00E000E400E0F3
:1029F00080E100E07047000029B1064A52690243B5
:102A0000044B5A6104E0034A52698243014B5A6104
:102A1000704700000010024029B1064AD269024303
:102A2000044BDA6104E0034AD2698243014BDA6164
:102A3000704700000010024029B1064A9269024323
:102A4000044B9A6104E0034A92698243014B9A6104
:102A5000704700000010024030B500210022002421
:102A600000232D4D6D6805F00C0121B1042905D01E
:102A7000082923D105E0294D056022E0274D056096
:102A80001FE0254D6D6805F47012234D6D6805F447
:102A90008034022505EB92421CB9214D5543056057
:102AA0000BE01D4D6D6805F400351DB11C4D5543FF
:102AB000056002E0194D5543056002E0174D0560C1
:102AC00000BF00BF144D6D6805F0F0010909154DF8
:102AD0006B5C0568DD4045600F4D6D6805F4E06195
:102AE000090A104D6B5C4568DD4085600A4D6D68D4
:102AF00005F46051C90A0B4D6B5C4568DD40C5604B
:102B0000054D6D6805F44041890B074D6B5CC56848
:102B1000B5FBF3F5056130BD0010024000127A00EC
:102B200000093D00780000208800002010B5012039
:102B300002490860FF2000F0ABF910BD900121426E
:102B400070B50546002401220021092000F008FA92
:102B5000044624B91021284600F07EF90446FFF708
:102B6000E5FF0CB1012070BD0020FCE770B5054603
:102B70004FF6FF7401E0601E84B2FF2000F088F978
:102B8000A84201D0002CF6D10CB9FF2070BD002066
:102B9000FCE77FB500200090019002900390002593
:102BA000002400266846FFF7CBFF10B1002004B0D8
:102BB00070BD9DF8000000F0C000402809D19DF8CC
:102BC00009009DF8081000EB0120401C84B2A60209
:102BD00020E09DF8050000F00F009DF80A1000EBC2
:102BE000D1109DF8091001F0030100EB4100851C94
:102BF0009DF8080080119DF8071000EB81009DF8FA
:102C0000061001F0030100EB8120441CA5F109002E
:102C100004FA00F63046CAE7F8B500200090002418
:102C20000026002500F0C0F800F04CF900BF04E0D9
:102C3000FF2000F02DF9681C85B20A2DF8DB142660
:102C400000BF95220021084600F08AF90446012CB5
:102C500004D0301EA6F101018EB2F2D100205149FC
:102C60000870012C4AD187224FF4D571082000F05A
:102C700077F9012847D1002506E0FF2000F008F988
:102C80000DF80500681C85B2042DF6DB9DF80200E6
:102C9000012879D19DF80300AA2875D14FF6FE7658
:102CA00000BF01220021372000F05AF901229107CC
:102CB000292000F055F9044624B1301EA6F1010187
:102CC0008EB2EED1002E5FD0012200213A2000F01A
:102CD00047F9002858D1002506E0FF2000F0D8F879
:102CE0000DF80500681C85B2042DF6DB9DF8000088
:102CF00000F0400018B106202A49087044E0042082
:102D00002849087040E001220021372000F028F90E
:102D100001220021292000F023F90446012C17DCB0
:102D20000220204908704FF6FE7600BF01220021E4
:102D3000372000F015F901220021292000F010F9B8
:102D40000446BCB1301EA6F101018EB2EED111E0F5
:102D50000120144908704FF6FE7600BF01220021C1
:102D6000104600F0FDF8044624B1301EA6F1010122
:102D70008EB2F3D12EB101225102102000F0F0F8F2
:102D800010B1002007490870FFF7D0FE00F086F868
:102D90000448007808B10020F8BD0CB12046FBE7DC
:102DA000AA20F9E79200002008B501210420FFF7CE
:102DB00043FE1020ADF800008DF8030002208DF8CE
:102DC000020069460448FEF7C3FD00F061F90120E6
:102DD0000249086008BD000000080140900121423E
:102DE0002DE9F04107460E461446002519480078A3
:102DF000062800D07602012C0CD101223146112088
:102E000000F0AEF80546FDB96102384600F024F83E
:102E1000054619E001223146122000F0A1F80546CE
:102E200000BF4FF40071384600F016F8054607F56C
:102E30000077601E80B2041E01D0002DF1D0012267
:102E400000210C2000F08CF8FFF770FE2846BDE84A
:102E5000F08100009200002070B504460D46FE206F
:102E6000FFF784FE08B1012070BD04E0FF2000F0F0
:102E70000FF82070641C281EA5F101018DB2F5D158
:102E8000FF2000F005F8FF2000F002F80020EBE73B
:102E900010B50446204600F04FFB10BD10B50848A1
:102EA00000884FF6C7710840054908800846008829
:102EB00040F0180008800121014800F02DF910BDF4
:102EC0000030014010B5084800884FF6C77108402F
:102ED000054908800846008840F038000880012134
:102EE000014800F019F910BD0030014010B5002074
:102EF0000549086000F070F808B9002010BDFFF720
:102F000015FE0120FAE700009001214270B5064647
:102F10000D46002400F060F808B1012070BD28467D
:102F2000FFF7B6FFFD2D19D0002404E0305DFFF758
:102F3000AFFF601C84B2B4F5007FF7DBFF20FFF722
:102F4000A7FFFF20FFF7A4FFFF20FFF7A1FF044624
:102F500004F01F00052801D00220DFE70020DDE794
:102F60002DE9F04105460C4616460027B846FFF706
:102F7000DDFDFFF7BBFF10B1FF20BDE8F08145F09C
:102F80004000FFF785FF200EFFF782FFC4F30740E4
:102F9000FFF77EFFC4F30720FFF77AFFE0B2FFF7E9
:102FA00077FF3046FFF774FF0C2D02D1FF20FFF7AB
:102FB0006FFF4FF01F0800BFFF20FFF769FF0746B4
:102FC00007F0800030B1B8F10000A8F1010101F074
:102FD000FF08F1D13846D0E710B5002400BFFF202C
:102FE000FFF756FFFF2801D1002010BD641C6FF0D1
:102FF0007F408442F3D30120F7E700002DE9F04140
:1030000007460E461446002520480078062800D0C2
:103010007602012C0CD1012231461820FFF7A0FFC7
:1030200005466DBBFE213846FFF770FF054627E0D9
:1030300016480078012809D0012200213720FFF727
:103040008FFF012221461720FFF78AFF0122314618
:103050001920FFF785FF054695B900BFFC213846CA
:10306000FFF754FF054607F50077601E80B2041E87
:1030700001D0002DF2D0FD210020FFF747FF0546CB
:10308000FFF754FD2846BDE8F081000092000020C3
:1030900000B587B000200690142101A8FDF76DF857
:1030A000012141F20400FFF7C7FCE020ADF8180051
:1030B00018208DF81B0003208DF81A0006A914486B
:1030C000FEF746FC0020ADF810000120ADF80C0022
:1030D0000220ADF80A000720ADF814000020ADF87A
:1030E0000800ADF80400ADF812004FF48270ADF89E
:1030F00006004FF40070ADF80E0001A9054800F07D
:1031000025F80121034800F007F807B000BD0000D2
:10311000000801400030014021B1028842F0400225
:10312000028004E002884FF6BF731A4002807047A5
:103130000246002013890B400BB1012000E0002063
:1031400070470146888970478181704710B5002219
:10315000028802F441520B884C8823438C88234315
:10316000CC8823430C8923434C8923438C892343F4
:10317000CC8923431A430280838B4FF2FF74234090
:1031800083830B8A038210BD7047000010B594B092
:103190008C48007808B914B010BD8B48007814280A
:1031A0007ED2DFE800F00A0E7D7D7D7D7D5D5E5F75
:1031B000606162636465666768AC0120824908707B
:1031C000FCE04FF480618148FEF796FC18B10120C5
:1031D0007F49487002E000207D4948704FF48051DB
:1031E0007A48FEF789FC18B101207949887002E01D
:1031F00000207749887008217648FEF77DFC18B1D9
:1032000001207349C87002E000207149C870202174
:103210007048FEF771FC18B101206D49087102E099
:1032200000206B49087180216A48FEF765FC18B1DF
:1032300001206749487102E00020654948714FF458
:1032400000716448FEF758FC18B10120604988718C
:1032500002E000205E49887107205B490870ADE0FC
:1032600000BF00BF00BF00BF00BF00BF00BF00BF66
:1032700000BF00BF00BF5848007878BB0120574905
:10328000514A127888545449087055480088554965
:1032900008804D480078C01F00EB4000524B00E012
:1032A0008BE003EB400248480078801FC1B2012048
:1032B000FEF75AFD10BBC820FEF730F942480078EF
:1032C000C01F00EB4000484B03EB40023E48007833
:1032D000801FC1B20120FEF747FD0FE0FFE7404825
:1032E000008840490988401A322807DD00203A4901
:1032F000087035480078401C334908705EE00020B3
:1033000030490870012030490870002032490870A7
:10331000072008E03149095C012902D100212C4A2B
:103320001154411CC8B21328F4DB1D212B48FCF7B3
:1033300024FF0020264948762CA0FEF765FEFF22D8
:1033400011461046FEF774FE2CA0FEF75DFEFF222C
:1033500011461046FEF76CFEFEF756FD04462BA103
:103360002046FCF715FF98B129A12046FCF710FF75
:1033700070B1FFF723FA224626A1684600F068FEE6
:10338000FEF7C6FD6846FFF7BDFAFEF7C1FD00BFB8
:1033900024A0FEF739FEFF2211461046FEF748FE34
:1033A00026A0FEF731FEFF2211461046FEF740FE32
:1033B000FFF704FAFFF75EFA00E000BF00BF00BFAE
:1033C000E9E6000002000020BA00002000100140E1
:1033D000200C0020000C0140BE000020980C0020B2
:1033E00000000020BC0000203D0C00207478745FB9
:1033F000636865636B2E7069633D36007478745F33
:10340000636865636B2E7069633D3500C4EA000034
:10341000D4C200002573BCECB2E2D5FDB3A30D0A03
:1034200000000000736C745F73686F775F636F6E8A
:10343000742E7478743D222200000000636C69636E
:103440006B2073686F775F6C6F672C310000000032
:1034500010B500F001F810BD0CB5002001900090EF
:103460003348006840F480303149086000BF30487C
:10347000006800F4003000900198401C0190009812
:1034800018B90198B0F5A06FF1D12948006800F48F
:10349000003010B10120009001E000200090009861
:1034A000012843D12348006840F0100021490860FA
:1034B0000846006820F0030008600846006840F0F5
:1034C000020008601A484068194948600846406888
:1034D00048600846406840F480604860084640689C
:1034E00020F47C1048600846406840F4E8104860CA
:1034F0000846006840F08070086000BF0C48006813
:1035000000F000700028F9D00948406820F003005E
:10351000074948600846406840F00200486000BF24
:103520000348406800F00C000828F9D10CBD0000E9
:10353000001002400020024010B5044600BF0221E6
:103540000A48FFF7F5FD0028F9D021460748FFF7A4
:10355000FBFD00BF01210548FFF7EAFD0028F9D077
:103560000248FFF7EEFDC0B210BD00000030014080
:10357000042808D14FF0E021096941F004014FF01F
:10358000E022116107E04FF0E021096921F0040118
:103590004FF0E022116170477047000010B51348EA
:1035A000006840F001001149086008464068104971
:1035B00008400E494860084600680E4908400B491B
:1035C00008600846006820F48020086008464068CB
:1035D00020F4FE0048604FF41F008860FFF738FFBA
:1035E0004FF000600449086010BD00000010024068
:1035F0000000FFF8FFFFF6FE08ED00E010B5012126
:10360000054800F04DF928B10121034800F027F9E1
:1036100000F03CF810BD0000000400401FB501217F
:103620000220FFF7F9F9002001900290039040F288
:10363000E730ADF8080041F61F40ADF80400002067
:10364000ADF80A00ADF8060001A90F4800F096F9A0
:103650001D208DF8000000208DF801008DF802007B
:1036600001208DF803006846FFF78CF90121064818
:1036700000F0F5F801221146034800F022F900217C
:10368000014800F0EFF81FBD000400400248008828
:10369000401C014908807047000000200EB5012140
:1036A0000420FFF7B9F90E4800F014F9684600F05D
:1036B000B7F90020ADF80600ADF8020042F20F7035
:1036C000ADF8040041F61F40ADF80000694604481B
:1036D00000F054F90121024800F0C4F80EBD0000CA
:1036E0000008004010B50021034800F045F9012111
:1036F000014800F0B7F810BD0008004010B50021E7
:10370000034800F0AFF80021014800F035F910BD82
:103710000008004010B501211D4800F0C1F8002844
:1037200034D01C480068401C1A49086008460168EB
:1037300019A000F063FC17480068322822D300204B
:10374000144908600021124800F08CF816A0FEF71A
:103750005BFCFF2211461046FEF76AFC17A0FEF73D
:1037600053FCFF2211461046FEF762FC18A0FEF73C
:103770004BFCFF2211461046FEF75AFC0020184968
:10378000C87608770121024800F069F810BD0000F2
:10379000000C00401000002054494D355F436F7508
:1037A0006E743A25640D0A007669732062746E5F48
:1037B000636F6E6669726D2C30000000766973204D
:1037C00062746E5F63616E63656C2C300000000094
:1037D0007478745F73746172742E7069633D350020
:1037E000200C00201FB501210820FFF715F900204B
:1037F00001900290039040F2E730ADF8080041F6E6
:103800001F40ADF804000020ADF80A00ADF8060036
:1038100001A9104800F0B2F832208DF80000012014
:103820008DF8010002208DF8020001208DF80300C0
:103830006846FFF7A7F80121064800F010F80122BA
:103840001146044800F03DF80021024800F00AF853
:103850001FBD0000000C0040CA4302827047CA43EB
:103860000282704721B1028842F00102028004E026
:1038700002884FF6FE731A40028070471AB183899E
:103880000B43838102E083898B4383817047024627
:103890000020138A0B400BB1012000E0002070478C
:1038A00030B50246002000230024158A05EA0103F2
:1038B000958905EA010413B10CB1012000E0002054
:1038C00030BD1AB183890B43838102E083898B4326
:1038D0008381704701894FF6F8721140018170476A
:1038E00070B5002400220023058C4FF6FE7635408B
:1038F0000584028C8388048B4FF68F752C40B51E8F
:103900002C400D882C43751E2A400D892A434D8872
:103910002A43144DA8420BD0134DA84208D0134D92
:10392000A84205D0124DA84202D0124DA84213D190
:103930004FF6F7752A404D892A434FF6FB752A400A
:103940008D882A434FF6FF652B404FF6FF552B40DD
:103950008D892B43CD892B4383800483CD88858635
:10396000028470BD002C0140003401400040014041
:1039700000440140004801408184704700220288D1
:103980001D4B98420ED01D4B98420BD0B0F1804F8A
:1039900008D01B4B984205D01A4B984202D01A4BC4
:1039A000984204D14FF68F731A404B881A43174B35
:1039B000984207D0164B984204D04FF6FF431A4066
:1039C000CB881A4302808B8883850B8803850A4B3A
:1039D00098420BD0094B984208D00E4B984205D024
:1039E0000D4B984202D00D4B984201D10B7A0386C1
:1039F0000123838270470000002C01400034014005
:103A00000004004000080040000C0040001000408E
:103A100000140040004001400044014000480140C3
:103A20004FF6FF71818000210180C18041800172C9
:103A30007047000010B586B0044600200590019044
:103A4000029003900490012144F20400FEF7F4FF79
:103A50004FF40070ADF8140003208DF81600182004
:103A60008DF8170005A90D48FDF772FF019400209D
:103A7000ADF810000820ADF80E000020ADF80C00E5
:103A8000ADF80A00ADF8080001A9054800F034F9C6
:103A90000121034800F0D4F806B010BD0008014031
:103AA0000038014010B540F22551174800F0D4F815
:103AB000B0B1154800F08CF9C1B2144890F820203C
:103AC00090F82000401C114B83F8200018468154C8
:103AD00090F82000202803DB0020194681F8200000
:103AE00040F22441084800F0B7F860B1064800F001
:103AF0006FF90020054991F82010044A5054012024
:103B0000114681F8210010BD004400409C070020B0
:103B100010B586B0044600200590019002900390F5
:103B20000490009001214804FEF776FF0121042053
:103B3000FEF782FF0420ADF8140003208DF8160074
:103B400018208DF8170005A91E48FDF701FF082071
:103B5000ADF8140004208DF8170005A91948FDF7E9
:103B6000F7FE01940020ADF80800ADF80A00ADF8AA
:103B70000C00ADF810000C20ADF80E0001A91248A1
:103B800000F0BAF8012240F225510F4800F08EF8FB
:103B9000012240F224410C4800F088F826208DF8DC
:103BA000000000208DF801008DF8020001208DF842
:103BB00003006846FEF7E6FE0121034800F040F8E6
:103BC00006B010BD000801400044004010B540F2AE
:103BD0002551194800F040F8D0B1174800F0F8F826
:103BE000C1B2164890F8642090F86400401C134B52
:103BF00083F864001846815490F86400642803DB5D
:103C00000020194681F8640000200C4981F8650005
:103C100040F22441084800F01FF860B1064800F067
:103C2000D7F80020054991F86410044A5054012047
:103C3000114681F8650010BD00480040C800002012
:103C400021B1828942F40052828104E082894DF6DA
:103C5000FF731A408281704770B50246002400232A
:103C60000025002040F66A16B14200D100BFC1F322
:103C7000421501F01F03012606FA03F3012D02D1BC
:103C80009689334006E0022D02D1168A334001E0C6
:103C9000968A33400C12012606FA04F41688344042
:103CA00013B10CB1012000E0002070BDF0B5034657
:103CB000002400260025002040F66A17B94200D1F2
:103CC00000BF1846C1F3421401F01F06012707FA8E
:103CD00006F5012C01D10C3004E0022C01D110308A
:103CE00000E014301AB107682F43076002E007684C
:103CF000AF430760F0BD00002DE9F04786B00546F0
:103D00000E460024A24600BFA1460027B08900B19C
:103D100000BF2F462C8A4CF6FF700440F088044305
:103D20002C82AC894EF6F3100440B08831890843E8
:103D3000718908430443AC81AC8A4FF6FF400440CC
:103D4000B0890443AC8201A8FEF786FE1F48874273
:103D500002D1DDF810A001E0DDF80CA0A88900F484
:103D6000004040B10AEBCA0000EB0A10316849007C
:103D7000B0FBF1F807E00AEBCA0000EB0A1031686B
:103D80008900B0FBF1F86420B8FBF0F004012009D1
:103D9000642101FB1089A88900F4004040B1322061
:103DA00000EBC900B0FBF1F000F00700044308E0AD
:103DB000322000EB09106421B0FBF1F000F00F009D
:103DC00004432C8106B0BDE8F087000000380140B4
:103DD00001468888C0F30800704700BFFEE7000076
:103DE00000B593B000201090119012900C900D909F
:103DF0000E900F900B902C216846FCF7BEF9012124
:103E00000420FEF719FE0120ADF82C0018208DF8D3
:103E10002F0003208DF82E000BA92848FDF798FDF0
:103E200001210846FEF7F8FD40F2CF20ADF844002E
:103E30000020ADF84000ADF84600ADF8420010A9F2
:103E40004FF08040FFF79AFD6020ADF83000012070
:103E5000ADF832000020ADF83600ADF838000CA9FE
:103E60004FF08040FFF73CFD01210846FEF7C4FDFE
:103E70001348FDF753FA134800901348019010209F
:103E800002902A200390002004908020059040009A
:103E9000069080000790002008904FF40050099091
:103EA00000200A9069460648FDF7F4FA0122110243
:103EB0008805FFF7E3FC13B000BD000000080140D7
:103EC0001C000240340000407E01002010B501219A
:103ED0000348FDF71AFEC820FDF748FB10BD00009F
:103EE000000801402DE9F04106460D46002405EB8F
:103EF00045002B2101EBC00087B242E0002011E019
:103F000005EB450131444978814001F0800109B158
:103F10003D2100E01921374A22F81410611C8CB2AF
:103F2000411CC8B20828EBDB002010E005EB45017E
:103F3000715C814001F0800109B13D2100E019214F
:103F40002C4A22F81410611C8CB2411CC8B20828FB
:103F5000ECDB002011E005EB45013144897881401C
:103F600001F0800109B13D2100E01921214A22F828
:103F70001410611C8CB2411CC8B20828EBDB681E0F
:103F800085B2002DBAD1B078802101EA002008B1B5
:103F90003D2000E01920174921F81400601C84B26C
:103FA00005E00020134921F81400601C84B2BC42D3
:103FB000F7DB39461048FDF78BFA01210E48FDF773
:103FC000A1F901218807FFF74DFC00BF2020FDF774
:103FD0004BFA0028FAD000214FF08040FFF742FC56
:103FE00000210548FDF78EF92020FDF77DF9BDE899
:103FF000F08100007E0100201C0002400FB4054B40
:1040000010B503A9044A029800F046F810BC5DF808
:1040100014FB00002D560008180000200FB47CB5DA
:104020000C0009AD01D0611E00E00021CDE90001C6
:10403000064B6A462946089800F02EF8002C02D05C
:10404000009A002111707CBC5DF814FB51420008FD
:104050000FB4084B10B504A902AA039800F01CF88D
:10406000044602A9002000F0FEF8204610BC5DF8CE
:1040700014FB00006742000802E008C8121F08C1D4
:10408000002AFAD170477047002001E001C1121FD9
:10409000002AFBD1704700002DE9FF4F8BB09A46F4
:1040A0000F460546002606E025280BD052460D99FE
:1040B00090476D1C761C28780028F5D10FB030464B
:1040C000BDE8F08F0024A0460122604900E00443CF
:1040D00015F8013F203B02FA03F00842F7D1287897
:1040E0002E2817D115F8010F44F004042A280ED009
:1040F0006FF02F022878A0F1300109290AD808EBC7
:10410000880102EB410100EB01086D1CF2E757F852
:10411000048B6D1C287869283ED006DC0028CDD0A1
:1041200063280BD0642804D136E0732810D075289A
:104130004BD052460D999047761C85E017F8040B3A
:104140008DF8000000208DF80100E946012003E011
:1041500057F8049B4FF0FF3061074FF0000401D483
:104160000AE0641C44450DDA8442FADB19F80410B5
:104170000029F6D106E0641C8442FCDB19F8041027
:104180000029F8D1264404E019F8010B52460D9994
:104190009047641EF8D257E001CF4FF00A0B002879
:1041A00002DA40422D2102E0210504D52B218DF8B1
:1041B0002410012103E0E10705D02021F7E70DF1EC
:1041C000200908910CE00021F9E701CF4FF00A0B1C
:1041D000F9E75946FCF7D2FA01F1300209F8012D4E
:1041E0000028F6D1ADEB090000F1200B600701D4E7
:1041F0004FF00108D84502DDA8EB0B0000E00020DD
:104200008046002406E009A85246005D0D999047BB
:10421000641C761C08988442F5DB04E0302052468A
:104220000D999047761CB8F10001A8F10108F5DC62
:1042300005E019F8010B52460D999047761CBBF129
:104240000001ABF1010BF4DC6D1C34E7092801001F
:104250004A68002A06D00A68531C0B601070486830
:10426000401E486070470A68531C0B60107070470E
:1042700000200A49C97A094A927A91420DD0074929
:10428000CA7AC97A491C054BD9721946885CC97A21
:104290000A2902DB00211A46D1727047140C002053
:1042A0001FB500200390029001900090012108208A
:1042B000FEF7C2FB01211020FEF7BEFB01212020EA
:1042C000FEF7BAFB4FF40040ADF80C0010208DF85B
:1042D0000F0003208DF80E0003A94A48FDF738FBB4
:1042E0004FF400414748FDF710FC4FF4A870ADF8BB
:1042F000080010208DF80B0003208DF80A0002A999
:104300004148FDF725FB4FF4A8713F48FDF7FDFB41
:104310004FF40060ADF8040010208DF80700032072
:104320008DF8060001A93948FDF712FB4FF4006132
:104330003648FDF7EAFB0420ADF8000010208DF8A8
:10434000030003208DF8020069463148FDF700FBA9
:1043500004212F48FDF7D9FB4FF400412948FDF710
:10436000D4FB4FF400612948FDF7CFFB0421284816
:10437000FDF7CBFB10212448FDF7C7FB4021224865
:10438000FDF7C3FB4FF480711F48FDF7BEFB4FF4F0
:104390002A70ADF8080004208DF80B0002208DF87B
:1043A0000A0002A91848FDF7D3FA4FF4A050ADF85F
:1043B000040004208DF8070002208DF8060001A9F2
:1043C0001248FDF7C5FA1020ADF804008DF807007B
:1043D00003208DF8060001A90C48FDF7B9FA102159
:1043E0000A48FDF794FB2020ADF8040004208DF866
:1043F000070002208DF8060001A90448FDF7A8FA7D
:104400001FBD000000080140000C014000100140E9
:104410000014014007498A7A897A491C054B997230
:1044200019468854897A0A2902DB00211A469172BA
:1044300070470000140C002070B504460D460020A3
:104440002071401EE0622946204601F079FC08B147
:10445000032070BD94F82E1294F82F0241EA002038
:104460004AF65521884201D00220F2E794F869000B
:10447000010694F8680041EA004194F8670041EAB7
:10448000002094F86610084320F07F400D498842D0
:1044900001D10020DDE794F88500010694F884003E
:1044A00041EA004194F8830041EA002094F8821028
:1044B000084320F07F400349884201D10020C8E72B
:1044C0000120C6E746415400024600E0521C107825
:1044D00010B110788842F9D1107870470246891ED1
:1044E0005069801E884201D8002070479378906AF6
:1044F00001FB0300F9E72DE9F04704468946B9F1CD
:10450000000F06D1E76817B16069B84215D80127D6
:1045100013E04946204601F097F80646022E02D2E3
:104520000120BDE8F087701C08B93046F9E76069E2
:10453000B04201D93046F4E74F463D4600BF6D1CFE
:104540006069A84204D80225BD4201D90020E8E7ED
:104550002946204601F078F8064606B909E0701CA5
:1045600008B1012E01D13046DBE7BD42E7D1002082
:10457000D7E700BF6FF070422946204601F0FAFBF2
:104580008046B8F1000F08D1B9F1000F05D02A46D6
:104590004946204601F0EEFB8046B8F1000F0BD1F2
:1045A000E5602069401C78B12069401E2061607977
:1045B00040F00100607107E0B8F1010F02D14FF047
:1045C000FF3000E0012005462846AAE72DE9F35F09
:1045D0008A46DAF8007000E07F1C38782F28FBD07C
:1045E00038785C28F8D0009886690B222021304664
:1045F00001F09CFB0025A946AB464FF0080800BF20
:1046000058460BF1010B3C5C202C03DD2F2C01D014
:104610005C2C00D136E02E2C01D0C1450ED3B8F170
:10462000080F01D12E2C02D00620BDE8FC9F4FF0D0
:1046300008094FF00B08A806050EE1E7802C05DB02
:1046400045F00305A4F1800023490C5C214623A01A
:10465000FFF73AFF08B10620E7E7412C04DB5A2CAC
:1046600002DC45F0020508E0612C06DB7A2C04DC54
:1046700045F00105A4F12000C4B2484609F1010942
:104680003454BDE700BF07EB0B00CAF80000202C34
:1046900001DC042000E000200446B9F1000F01D144
:1046A0000620C2E73078E52801D105203070B8F146
:1046B000080F01D1A806050E05F00300012801D15D
:1046C00044F0100405F00C00042801D144F0080463
:1046D000F4720020A9E700005A610008222A2B2C5E
:1046E0003A3B3C3D3E3F5B5D7C7F00002DE9F04165
:1046F00004460E460021204600F0F8F80546EDB9C4
:10470000002700BF2169206801F01AFB054605B1AA
:1047100013E060690078E52802D06069007820B96C
:10472000781C0746B04201D107E00027012120464E
:1047300000F038F80546002DE4D000BF042D00D16C
:1047400007252846BDE8F0812DE9F0410446002107
:10475000204600F0CBF8054615B12846BDE8F081AB
:1047600000BF2169206801F0EBFA054605B116E0AB
:10477000666937780FB9042511E0F07A00F0080077
:1047800030B90B223046A16901F0B0FA00B906E059
:104790000021204600F006F80546002DE1D000BFBC
:1047A0002846DBE72DE9F04104468846E088461CB0
:1047B000B0B208B1206910B90420BDE8F08106F05C
:1047C0000F0000286BD12069401C2061E06828B9E7
:1047D00020680089B04262D80420EEE72068807823
:1047E000401E00EA1610002859D1E168206800F048
:1047F0002BFF0546012D01D80220DEE7681C08B911
:104800000120DAE720684069A84242D8B8F1000FD9
:1048100001D10420D1E7E1682068FFF76CFE05466E
:104820000DB90720C9E7012D01D10220C5E7681C99
:1048300008B90120C1E7206801F02AFC08B1012075
:10484000BBE7216801F130004FF40072002101F054
:104850006DFA29462068FFF741FE2168C8620027EB
:104860000EE0012021680871206801F011FC08B1F8
:104870000120A2E72068C06A401C2168C8627F1C32
:1048800020688078B842ECD82068C06AC01B2168D4
:10489000C862E56029462068FFF720FE2061E680B7
:1048A0002068303006F00F0100EB411060610020FD
:1048B00083E770B5044601212046FFF717FF054640
:1048C00095B92169206801F03BFA054665B92022B7
:1048D0000021606901F02AFA0B22D4E9050101F0F8
:1048E00018FA012021680871284670BD2DE9F041B1
:1048F00004460E46E680A568012D03D02068406975
:10490000A84202D80220BDE8F0812DB920680078C5
:10491000032801D12068456A45B920680089B04262
:1049200001D80220EFE72068476A1EE020688078FF
:104930004FEA001812E02946206800F085FE05467F
:10494000681C08B90120DEE7022D03D32068406906
:10495000A84201D80220D6E7A6EB08064645EAD2CF
:1049600029462068FFF7BAFD0746E5600FB9022027
:10497000C9E707EB161020612068303006F00F0100
:1049800000EB411060610020BDE770B504460025D2
:104990001CB9FEF741F9054601E0012070BD00BFDA
:1049A0000DB10120FAE70020F8E72DE9F0410646B5
:1049B0000D4614460027B6B9052D11D2DFE805F0E3
:1049C0000304080C0F000DE0FEF7E3F8206009E097
:1049D0004FF40070206005E00120206002E001E05B
:1049E000042700BF00E001273846BDE8F0812DE92B
:1049F000F04105460E4617461C4614B90420BDE892
:104A0000F0814FF0000835B9A2B239463046FEF7C2
:104A1000E7F9804601E00120F1E700BFB8F1000F9F
:104A200001D00120EBE70020E9E7014609B90020A9
:104A300070470120FCE72DE9F04105460E46174678
:104A40001C4614B90420BDE8F0814FF0000835B9C8
:104A5000A2B239463046FEF7D1FA804600BF00BF09
:104A6000B8F1000F01D00120EDE70020EBE770B5B1
:104A70000546284600F084FA044634B9284601F079
:104A800053FB04460CB900202860204670BD2DE978
:104A9000F04704460E46204601F046FB8246BAF136
:104AA000000F02D05046BDE8F087E07908B1E07908
:104AB000F9E7E068B04204D2A07900F0020000B942
:104AC000E668D4F808904FF00008C4F80880002E7B
:104AD00067D0206880784702B9F1000F11D0701EAE
:104AE000B0FBF7F1A9F10100B0FBF7F0814208D368
:104AF000A9F10100791E8843A060A068361A656993
:104B000012E025697DB900212068FFF7F4FC054615
:104B1000012D02D10220E071C5E7681C10B9012007
:104B2000E071C0E725616561002D3AD023E0A079EE
:104B300000F0020038B129462068FFF7DCFC05468A
:104B400035B93E4619E02946206800F07DFD05464E
:104B5000681C10B90120E071A5E7012D03D9206878
:104B60004069A84202D80220E0719CE76561A06814
:104B70003844A060F61BBE42D9D800BFA0683044BC
:104B8000A060C6F3080060B129462068FFF7A6FCC4
:104B90008046B8F1000F02D10220E07183E708EBF4
:104BA00056282089C0F3080020B3A069404521D0D1
:104BB000A07900F0400078B121684878012304F121
:104BC0002401A269FFF737FF10B10120E0716AE705
:104BD000A07920F04000A071216848780123424666
:104BE00004F12401FFF703FF10B10120E0715AE73F
:104BF000C4F81880D4E90201884205D9A068E060B1
:104C0000A07940F02000A07150464CE7F7B582B083
:104C100016460398019001A800F08FFD0546002D6F
:104C200002DA0B2005B0F0BD0E4850F825400CB15B
:104C300000202070029810B10020029908700949E4
:104C4000029841F82500029808B1012E01D00020F9
:104C5000E8E7002203A902A800F0D6FA0746384682
:104C6000E0E700008C0000202DE9F7438AB00546FC
:104C700016461DB909200DB0BDE8F083002028605C
:104C800006F01F0626F001020BA903A800F0BCFAEB
:104C90000746002F71D1CDF824D003A80B9900F05E
:104CA0007DFC0746089C0FB904B9062706F01C00D6
:104CB00000285BD04FB1042F03D103A8FFF7F9FD03
:104CC000074646F00806089C09E0E07A00F011006B
:104CD00008B1072703E006F0040000B10827002F01
:104CE00054D106F00800002850D0DFF8F08084F896
:104CF0000E804FEA1821E1734FEA184121744FEA00
:104D00001861617484F816804FEA1821E1754FEA42
:104D1000184121764FEA186161760020E072207711
:104D200000216177A177E1772146039800F030FFF9
:104D300081460021204601F03FF9012003990871C6
:104D4000B9F1000F22D00398D0F82C80494603987F
:104D500001F0B1F80746CFB9A9F101000399C86085
:104D60004146039800F0ECFF07460FE077B9E07A80
:104D700000F0100010B1042708E02DE006F002005A
:104D800020B1E07A00F0010000B1072747B906F032
:104D9000080008B146F020060398C06AE8612C625A
:104DA000D7B9AE710020E8712146039800F0F0FEFB
:104DB0002861E07F0106A07F41EA0041607F41EA6F
:104DC0000020217F0843E8600020A860A8610398C4
:104DD00028602868C088A88038464CE70000214633
:104DE0002DE9FF4F83B0044615469A46DDF810B012
:104DF0000020CAF80000204601F096F902900298BF
:104E000018B1029807B0BDE8F08FE07908B1E079F9
:104E1000F8E7A07900F0010008B90720F2E7D4E92B
:104E20000210401A00900098854200D9009DA2E02F
:104E30002089C0F3080000287ED120688078401EB9
:104E4000A16800EA512000F0FF09B9F1000F17D165
:104E5000A06810B92069019004E06169206800F041
:104E6000F3FB01900198022802D20220E071C9E709
:104E70000198401C10B90120E071C3E701986061FE
:104E800061692068FFF72AFB064616B90220E07127
:104E9000B8E74E444FEA5528B8F1000F29D009EB86
:104EA000080021688978884203D920688078A0EBBF
:104EB000090821684878434632465946FFF797FD6E
:104EC00010B10120E0719DE7A07900F0400068B1C9
:104ED000A069801B404509D2A169891B0BEB4120C9
:104EE0004FF4007204F1240100F013FF4FEA482749
:104EF00037E0A069B04220D0A07900F0400078B13E
:104F000021684878012304F12401A269FFF793FD89
:104F100010B10120E07175E7A07920F04000A07188
:104F2000216848780123324604F12401FFF75FFD30
:104F300018B10120E07165E700E0A6612089C0F3A7
:104F40000800C0F50077AF4200D92F462089C0F392
:104F5000080204F1240011183A46584600F0D9FE20
:104F600000BFBB44A0683844A060DAF800003844B1
:104F7000CAF80000ED1B002D7FF45AAF002041E776
:104F80002DE9F0410446204601F0CEF80746002FF7
:104F90004AD1A07900F02000002845D0A07900F087
:104FA000400078B121684878012304F12401A26906
:104FB000FFF741FD10B10120BDE8F081A07920F09C
:104FC0004000A071E169206800F0BAFE0746002F9A
:104FD0002AD1256AE87A40F02000E872207B287701
:104FE000A089010A6977E068010CA977E068010EE1
:104FF000E9772846216900F0DFFF0C4EAE75310AD3
:10500000E975310C2976310E69760020A8740021EB
:10501000E974A07920F02000A071012021680871B6
:10502000206800F0D1FF07463846C5E7000021465A
:105030002DE9FF4F83B0044615469B460498019026
:105040000020CBF80000204601F06EF80290029894
:1050500018B1029807B0BDE8F08FE07908B1E079A7
:10506000F8E7A07900F0020008B90720F2E7A0688D
:105070002844A168884200D20025B5E02089C0F309
:105080000800002877D120688078401EA16800EAD7
:10509000512000F0FF0ABAF1000F1ED1A06838B904
:1050A000276957B900212068FFF725FA074604E071
:1050B00061692068FFF71FFA074607B997E0012FDB
:1050C00002D10220E071C5E7781C10B90120E0711F
:1050D000C0E76761206900B92761A07900F040004E
:1050E00078B121684878012304F12401A269FFF70F
:1050F000A2FC10B10120E071ACE7A07920F04000E3
:10510000A07161692068FFF7E9F9064616B9022027
:10511000E0719FE756444FEA5529B9F1000F2BD0B3
:105120000AEB090021688978884203D920688078D1
:10513000A0EB0A09216848784B4632460199FFF7EF
:105140007AFC10B10120E07184E7A069801B48451A
:105150000ED2A069801B019A02EB40214FF400722D
:1051600004F1240000F0D5FDA07920F04000A071EA
:105170004FEA49282BE013E0A069B0420FD0D4E9F0
:10518000020188420BD2216848780123324604F19B
:105190002401FFF72CFC10B10120E0715AE7A66151
:1051A0002089C0F30800C0F50078A84500D9A846BA
:1051B0002189C1F3080204F12401501842460199E3
:1051C00000F0A7FDA07940F04000A07100BF019859
:1051D00040440190A0684044A060DBF800004044D7
:1051E000CBF80000A5EB0805002D7FF447AF00BF0A
:1051F000D4E90201884201D9A068E060A07940F0BA
:105200002000A071002025E72DE9F74F8AB000218A
:105210000A9801600B9800F090FA0990099800280C
:1052200003DA0B200DB0BDE8F08FD849099851F88A
:1052300020400CB90C20F5E70A980460207878B17A
:105240006078FFF7F2FB814609F0010040B90C9845
:1052500020B109F0040008B10A20E3E70020E1E7EB
:1052600000202070099860706078FFF78EFB8146FF
:1052700009F0010008B10320D4E70C9820B109F02F
:10528000040008B10A20CDE7002739462046FFF781
:10529000D3F80546012D01D09DBB32E000261AE06F
:1052A00004F5F77000EB061898F8040070B198F850
:1052B0000B00010698F80A0041EA004198F809003D
:1052C00041EA002098F80810084300E0002002A9F5
:1052D00041F82600761C042EE2D3002606B1761E85
:1052E00000BF02A850F8267027B139462046FFF7C4
:1052F000A3F800E0022005461DB1701C06460428F4
:10530000EFD3032D01D101208CE70DB10D2089E7EA
:105310003B20015D94F83C0041EA0020B0F5007F9D
:1053200001D00D207EE74620015D94F8470041EA58
:10533000002ABAF1000F0ED194F85700010694F834
:10534000560041EA004194F8550041EA002094F8E3
:10535000541040EA010AC4F818A04020005DE07033
:10536000E078012804D0E078022801D00D2059E728
:10537000E0780AFB00FA3D20005DA070A07818B12B
:10538000A078411E084008B10D204BE74120015D87
:1053900094F8420041EA00202081207A00F00F00BA
:1053A00008B10D203EE74320015D94F8440041EA36
:1053B00000200890089870B994F85300010694F8FA
:1053C000520041EA004194F8510041EA002094F86B
:1053D0005010084308903E20015D94F83F0041EAD8
:1053E00000200190019808B90D201BE70198504456
:1053F000218900EB11100790DDE90701814201D2FC
:105400000D200FE7DDE90710401AA178B0FBF1FB92
:10541000BBF1000F01D10D2004E7012540F6F67025
:10542000834500D302254FF6F670834500D303254C
:105430000BF102006061E76101983844206207982F
:105440003844A062032D16D1208908B10D20E9E669
:1054500094F85F00010694F85E0041EA004194F878
:105460005D0041EA002094F85C10084360626069C6
:105470008000069014E0208908B90D20D2E6206A49
:1054800050446062022D02D16069400007E0207D37
:1054900000F00100616901EB410100EB5100069051
:1054A000A169069800F2FF10B1EB502F01D20D2038
:1054B000B8E64FF0FF302061E06080206071032D7E
:1054C0005AD194F8601094F8610041EA0020012854
:1054D00052D1791C204600F033FCE8BB00206071FB
:1054E00094F82E1294F82F0241EA00204AF6552132
:1054F000884241D13320005D01063220005D41EA3F
:1055000000413120005D41EA002094F8301008434A
:105510001F49884230D194F81702010694F8160208
:1055200041EA004194F8150241EA002094F814126F
:105530000843184988421FD194F81B02010694F8C9
:105540001A0241EA004194F8190241EA002094F855
:1055500018120843206100E00EE094F81F020106D3
:1055600094F81E0241EA004194F81D0241EA00202D
:1055700094F81C120843E060257007480088401C1E
:1055800080B205490880E08000204BE68C000020B6
:105590005252614172724161900000202DE9F34145
:1055A0000446019800782F2803D0019800785C28E1
:1055B00002D10198401C01900020A0600198007861
:1055C000202807D200212046FFF790F90546002049
:1055D000606128E000BF01A92046FEF7F7FF0546FD
:1055E00005B11FE02046FFF7AFF80546A069C67A6F
:1055F0003DB1042D04D100BF06F0040000B905251B
:1056000010E006F0040000B10CE06769F87A00F0E1
:10561000100008B9052505E03946206800F0B8FA01
:10562000A060D8E700BF2846BDE8FC8100BF054A5E
:10563000128802F04002002AF9D0C2B2014B1B1DB1
:105640001A807047003801402DE9F04705460C46A6
:10565000022C02D36869A04202D84FF0010969E028
:105660004FF0FF392878012804D002282ED00328D3
:105670005CD13FE0274607EB5707286A00EB57212C
:10568000284600F05DFB00B153E038467F1CC0F3B4
:10569000080105F1300010F80180286A00EB57215D
:1056A000284600F04DFB00B143E0C7F3080105F1C7
:1056B0003000405C48EA002804F0010010B14FEAD5
:1056C000181001E0C8F30B00814632E0286A00EBB5
:1056D0001421284600F034FB00B12AE040F2FF100C
:1056E00000EA440105F130000E183078717840EA84
:1056F00001291EE0286A00EBD411284600F020FBA7
:1057000000B116E040F2FF1000EA840105F130001C
:105710000E18F0780006B17840EA0140717840EA4E
:1057200001203178084320F0704902E04FF0010970
:1057300000BF00BF4846BDE8F08770B502464FF095
:10574000FF301568DDB1116800E0491C0D78212D8E
:1057500002D30D783A2DF8D10D783A2D0ED1146878
:1057600014F8015BA5F130030A2B06D28C4204D158
:105770001BB918464D1C2946156070BD002000BF9E
:10578000FBE7000070B5002400250026FEF770FD41
:10579000044604B970BDC2480078844202D000209B
:1057A000C0498876BF48C07E022804D11B2C02D095
:1057B0001C2C00D0EEE7BB48407E022800D1E9E770
:1057C0001D2C76D2DFE804F0750F1011121314248B
:1057D00025262728292A2B2C2D2E2FA9AAABACADA4
:1057E000AED9E3F1F00000BF00BF00BF00BF00BFB3
:1057F000AC48005D022803D10120AA49085506E003
:10580000A848005D012802D10220A649085542E1BE
:1058100000BF00BF00BF00BF00BF00BF00BF00BF90
:1058200000BF00BF00BF9F48005D00B9B2E79E48BF
:105830000078E8B100250DE09B480078C01F00EB20
:1058400040009A4901EB4000405D022800D103E08E
:10585000681CC5B2062DEFDB00BF062D08DB9048A3
:105860000078844204D001208E498F4A12788854EF
:105870008C48005D022836D18948007884420ED0D9
:10588000E01F00EB4000894901EB400085491331DE
:1058900002680A6080888880834804703CE00120A8
:1058A0008049085501F11300002101608180002525
:1058B00013E0EFE0E01F00EB40007C4901EB40000B
:1058C000405D022807D10121E01F00EB4000774A2C
:1058D00002EB40004155681CC5B2062DEADB0020F2
:1058E0007149087018E06F48005D012811D102204D
:1058F0006C490855E01F00EB40006C4901EB40018A
:10590000684813300A68026089888180664804709C
:1059100002E0012063490855BDE000BF00BF00BFA1
:1059200000BF00BF6048007830B35E48005D0228C9
:105930000FD101205B49085501215B480078C01F49
:1059400000EB4000594A02EB4002A4F1130011544D
:1059500012E05448005D01280ED10220514908553B
:10596000022151480078C01F00EB40004F4A02EB73
:105970004002A4F1130011548DE04D48007828B97D
:1059800002204849487601204949087083E046488A
:10599000007800B9FEE64348807E022820D100202E
:1059A00040498876002518E053E046E03E480078FC
:1059B000C01F00EB40003D4901EB4000405D022864
:1059C00009D1012138480078C01F00EB4000374A58
:1059D00002EB40004155681CC5B2062DE6DB1DE018
:1059E000022030498876002516E02F480078C01F35
:1059F00000EB40002D4901EB4000405D012809D13A
:105A0000022129480078C01F00EB4000274A02EB22
:105A100040004155681CC5B2062DE6DB22480078DF
:105A2000C01F00EB4000214901EB40001D4913312C
:105A300002680A60808888802DE01A48C07E0228AB
:105A400003D100201749C87602E002201549C87624
:105A500021E01448C07E02281BD11248007F022892
:105A60000DD100200F490877C8761249086000213F
:105A70001148FDF7F7FE01201049087009E00220E7
:105A80000849087700200B49086001210A48FDF702
:105A9000E9FE00E000BF00BF0148047000BF79E6E6
:105AA000B9000020200C0020B40000203D0C002094
:105AB0000200002010000020000C00400300002025
:105AC000F8B50020009000260025002453E02B4963
:105AD000085DFBF7C1FA0646002510E0284830F8BB
